:020000040800F2
:10000000102E0020891100085D1100085F11000802
:10001000611100086311000865110008000000006C
:10002000000000000000000000000000A30D000818
:1000300067110008000000005D0D0008E10A0008DB
:10004000AD110008B1110008B5110008B911000880
:10005000BD110008C1110008C5110008C911000830
:10006000CD110008D1110008D5110008D9110008E0
:10007000DD110008E1110008E5110008E911000890
:10008000ED110008F1110008F5110008F911000840
:10009000FD110008011200080512000809120008ED
:1000A0000D1200086911000811120008151200084D
:1000B000191200081D12000821120008251200085C
:1000C000291200082D12000831120008351200080C
:1000D000391200083D1200084112000845120008BC
:1000E000491200084D120008511200082DE9F8438A
:1000F000040016D02078DFF8A064C10713D570681B
:1001000000F00C00042807D0706800F00C000828EC
:1001100040D17068C1033DD53068810303D5606864
:10012000002800F0F4802078DFF87C74810719D56E
:10013000706810F00C0F07D0706800F00C000828F1
:1001400060D17068C1035DD43068810703D5206930
:10015000012840F0DC803168606921F0F80141EA53
:10016000C00131602178080770D5A069DFF83C1420
:10017000002865D001220A6000F04CFA0546706A3A
:10018000810700F1C68000F045FA401B0228F6D92D
:10019000032035E16068B0F5803F04D1306840F459
:1001A0008030306014E008B930680AE0B0F5A02F64
:1001B000306806D140F480203060316841F48031ED
:1001C00005E020F480303060316821F48021316016
:1001D000606858B100F01EFA054630688103A2D469
:1001E00000F018FA401B6528F7D3D1E700F012FAA7
:1001F00005463068810396D500F00CFA401B65284F
:10020000F7D3C5E7206970B10121396000F002FA27
:1002100005463068810700F1B68000F0FBF9401B0D
:100220000228F6D9B4E7386000F0F4F905463168E1
:10023000880797D500F0EEF9401B0228F7D9A7E709
:10024000086000F0E7F90546706A810770D500F094
:10025000E1F9401B0228F7D99AE708B9306A09E0AA
:100260000528306A06D140F004003062306A40F060
:10027000010005E0400840003062306A20F00400D0
:10028000306241F28938E06868B100F0C3F9814614
:10029000306A810700F1848000F0BCF9A0EB09000E
:1002A0004045F5D374E700F0B5F98146306A81071F
:1002B00076D500F0AFF9A0EB09004045F6D367E72B
:1002C00000F0A8F9401B02287BD961E700F0A2F9F1
:1002D000001B022840F28F805AE700F093F8044692
:1002E0003068810140F18B8000F094F9001B0228F6
:1002F000F6D94DE701280AD07068226A00F48031EF
:10030000914202BF00F47010616A884277D00120E8
:1003100076E0DFF888020168C9084FF47A72B1FB11
:10032000F2F2009200BF0098411E00280091F9D11E
:100330002078410739D5F0690025C10009D4F0695A
:1003400040F08050F0610125F06900F0805000908D
:100350000098DFF85C82D8F80000C1051BD4D8F8FB
:10036000000040F48070C8F8000000F053F98146A6
:10037000D8F80000C1050ED400F04CF9A0EB09003C
:100380006528F5D304E73068616920F0F80040EA99
:10039000C1003060E6E6E06801287FF45EAF65E703
:1003A0001DB1F06920F08050F061E06938B37168E8
:1003B00001F00C0108299DD002288ED100F022F80E
:1003C0000546306881013FF57BAF206AB0F5803F7C
:1003D00005D17168A06821F4003101437160726831
:1003E000206A616A22F4741202430A437260012097
:1003F00000F009F80446306881017FF567AF0020FE
:10040000BDE8F2830020386600F004B92DE9F04120
:100410000400884672D0674E00F077F802D200F0F0
:100420006FF86BD120685C4D810712D5400703D56A
:10043000696841F4E06169602078010703D5686864
:1004400040F4605068606968A06821F0F0010143E1
:1004500069602178C80749D56068012802D12968F8
:100460008A0303E00228296802D18A0102D445E008
:100470008A0743D56968890840EA8100686000F00E
:10048000C9F807466868616800F00C00B0EB810F9E
:100490002CD000F0BFF8C01B41F289318842F1D363
:1004A000032021E02078410705D56A68E06822F43E
:1004B000E06202436A602178080706D5696820690E
:1004C00021F4605141EAC001696000F023F86A68D4
:1004D0003949324BC2F30312895CC8401860314875
:1004E000006800F09DF80020BDE8F081306800F061
:1004F00007008045D6D200F003F8D3D00120F3E7FF
:100500003168C90848EAC1013160306800F007006D
:1005100040457047294922480A6802F00C03082B1D
:1005200000D0704710B500BF27A4C2F38343D203A5
:10053000E35C08D50968584327A3C1F340415A5CDE
:10054000B0FBF2F010BD18461D49484310BD1348DA
:100550001A4A006813681B49C3F3C222895CC84069
:10056000704710B50F220260144A136803F00303AA
:100570004360146804F0F0048460136803F4E063DB
:10058000C3601268D20802F4E0620261094802689E
:1005900002F007020A6010BD001002401C28002073
:1005A00000127A00182800200000424280044242D3
:1005B0000070004000200240781100080410024042
:1005C00000093D00A41100080203040506070809FC
:1005D0000A0B0C0D0E0F1010010230B4002513E0B1
:1005E00050F8042BD30744BFA9F101039A18091F3F
:1005F000042942F8045BFAD213468C0744BF1580E5
:100600009B1CC90748BF1D7050F8041B0029E7D187
:1006100030BC704701484068704700BF1028002078
:1006200078B504461D481E4D87B0016841F400614D
:10063000016001A9006800F40060009002A8009A1F
:10064000FFF78FFFFFF783FF1649174B2960B0FBB9
:10065000F3F0401E40F2E73268600021EA60296151
:10066000A960A961284600F023F8060012D12846A7
:1006700000F02BF806000DD1192000F084F9102CA1
:1006800007D200222146192000F060F907480460D3
:1006900000E00126304608B070BD0000181002408E
:1006A000BC290020002C014040420F0018280020E7
:1006B00038B5040001D1012032BD00F04BF818B963
:1006C00000F0E6F800F026F92DE090F83D10012941
:1006D00001D001207047022180F83D100168CA68EE
:1006E00042F00102CA600068DFF86010884218BF5B
:1006F000B0F1804F07D0DFF8581088421CBFDFF8F8
:100700005C20904209D1816801F00701062908D0D8
:10071000016841F00101016003E0026842F001025A
:1007200002600020704702206870211D206800F0E0
:10073000B3F80120A872A870E87028716871A871D8
:10074000E871287268726870002032BD002C014088
:100750000004004004F13C05687870470008004040
:1007600070B504462068C5680669B10714D5AA07A4
:1007700012D56FF00201016101222277806910F029
:10078000030F204602D000F013F903E000F011F946
:1007900000F07BF800202077700715D5690713D586
:1007A00020686FF00402026102212177806910F451
:1007B000407F204602D000F0FBF803E000F0F9F89B
:1007C00000F063F800202077300715D5290713D5EE
:1007D00020686FF00802026104212177C06910F0DF
:1007E000030F204602D000F0E3F803E000F0E1F848
:1007F00000F04BF800202077F00615D5E90613D558
:1008000020686FF01002026108212177C06910F49E
:10081000407F204602D000F0CBF803E000F0C9F89A
:1008200000F033F80020207706F0010105F0010008
:10083000014206D020686FF001010161204600F0FE
:1008400061FA300608D5290606D522686FF08000C7
:100850001061204600F07EFA700608D5690606D5BC
:1008600022686FF040001061204600F074FAB00674
:100870000AD5A90608D522686FF02000106120462D
:10088000BDE8704000F068BA70BD204600F065BA5F
:10089000002129702046704770B51A4E03681A4C23
:1008A0001A4DB04218BFB0F1804F03D0A84218BF14
:1008B000A04209D14A6823F070031343B0421CBF21
:1008C000B0F1804FA84201D0A04203D1CA6823F4FE
:1008D000407313434A6923F0800313430360B0421B
:1008E0008B68C3620A68826202D10969084A116092
:1008F000012343610169CA0703D501694908490019
:10090000016170BD002C014000080040000400405F
:10091000302C0140704700000901020002D41F483A
:10092000815470471E4B02F00F021A4402F8041C57
:1009300070471C4B19684FF6FF020002114000F48B
:10094000E0600843184908431860704738B5154BF4
:100950001C68C4F30223C3F10704052C28BF042438
:100960001D1D072D34BF0023DB1E012505FA04F4ED
:10097000641E2140994005FA03F35B1E1A4011439F
:10098000BDE83440C8E7010007D4012200F01F0190
:10099000064B8A40400943F82020704700E400E0FD
:1009A00018ED00E00CED00E00000FA0500E100E0C9
:1009B0007047704710B5DFF85C0300F1100300F1D9
:1009C000100113F0070F0A4606D0CA1DD208C368EB
:1009D000D2009B1AC918C1601146C36801609B18F8
:1009E000083B002413F0070F446003D0DB08DB0052
:1009F0009A1AC26083605C601C6082680A60C0688A
:100A0000486010BD70B500F1080515F0070F04D05F
:100A100005F1080005F00705451BBE4CA06808B9A4
:100A2000FFF7C8FF206821464268AA4204D2014667
:100A300000680028F8D170BD02680A6043685B1B3B
:100A4000112B05D3061D73514560425142190A60AE
:100A5000E36841685B1AE360002240F8082B70BD30
:100A6000AD494B680A685268C018984234BF4B6958
:100A70000B6943F822000120CB6800FA02F2886873
:100A8000134320EA0202CB608A604FF08051A34AF0
:100A90001160704730B5A0494868401C486003D1D8
:100AA00008694A690A614861002201230C6954F807
:100AB000220068B14D6885420AD3002044F8220024
:100AC000CC688D6803FA02F084432843CC608860C8
:100AD000521C202AEADB91494FF08050086030BD5B
:100AE00010B500F07AF90446FFF7D4FF2046BDE8C0
:100AF000104000F07FB910B54908403849004FF068
:100B000080748163C463426303621968C86010BD66
:100B10002DE9F8438146089E0F4690461C46042066
:100B2000FFF770FF05467E49356041F824506C6040
:100B3000B800FFF767FFA860334600EB8700001F8F
:100B4000C00842464946C000FFF7D5FF2860012291
:100B50007148056002FA04F481680C438460BDE8C2
:100B6000F18380B500F04FF96D496B4A51F82000D0
:100B7000106001BD6B48016821F00401016030BFC5
:100B8000F9E780B5644800F1180100F198020161AD
:100B9000426100F58C700090002300224FF48071B8
:100BA0006148FFF7B5FF01BD80B5002200F00EF8E7
:100BB0004FF47A70FFF754FFF7E780B5012200F099
:100BC00005F84FF4FA70FFF74BFFF7E74FF40051C9
:100BD000564800F0E7B91CB5554C5648009402231E
:100BE00000224FF48071FFF793FF211D0091032332
:100BF00000224FF480715048FFF78AFF13BD18B5EB
:100C000085B000F0EDF900F04CF801A8102100F0DB
:100C1000F9F94A48454C016841F010010160026849
:100C200002F0100200920099026842F02002026075
:100C3000036803F0200300930099026842F0040265
:100C400002600022006800F0040000904FF40051A0
:100C50000098204600F0A6F94FF4005101910122BE
:100C60000292002103910222049201A9204600F081
:100C7000D9F8FFF786FFFFF7AEFF3148314B016827
:100C800041F47F0101600021026842F07F4202606E
:100C90002D480160816043600721016000F091F8F8
:100CA000FEE700B58FB005A8282100F0ABF9684633
:100CB000142100F0A7F94FF4803100220691079229
:100CC0000D9101200590099002224FF4E0110C9241
:100CD0000E9105A8FFF70AFA08B100F039F80221D1
:100CE00001910F204FF48061009000220391029245
:100CF000049202216846FFF789FB08B100F028F84A
:100D00000FB000BD00681149884208BF00F07EB9ED
:100D100070470000000000202028002004ED00E0C3
:100D20003C29002010ED00E0750B00080010014088
:100D3000042A0020A90B0008BB0B00081810024071
:100D400020ED00E03F19010010E000E0002C014020
:100D500072B6FEE77047704770477047EFF309803F
:100D6000BFF36F8F2C4B1A6820E9F00F106008B5A5
:100D70004FF0BF0080F31188BFF34F8FBFF36F8F29
:100D8000FFF7EFFE4FF0000080F31188BDE8084048
:100D900019680868B0E8F00F80F30988BFF36F8F17
:100DA00070471D4B19680868B0E8F00F80F3098898
:100DB000BFF36F8F4FF0000080F311884EF00D0EDF
:100DC000704716480068006880F3088862B661B60C
:100DD000BFF34F8FBFF36F8F00DF72B6EFF3118059
:100DE0004FF0BF0181F31188BFF34F8FBFF36F8FB7
:100DF00062B6704772B680F31188BFF34F8FBFF3AE
:100E00006F8F62B6704706490A68B2FA82F04FF0F7
:100E10001F01A1EB000070472028002008ED00E032
:100E2000282800202DE9F8470027BE465F4A604B7E
:100E30004FF00F0882460BE016683040106006E065
:100E400054604C68E403F7D51068064316607F1CB5
:100E50000E6836FA07F000F0A380012000FA07F5CB
:100E60002E40AE42F3D1486858B301281AD0022868
:100E70001FD0032833D0112817D012281DD04D4C75
:100E8000A0421CBF4C4CA0421BD04C4CA0421CBFEB
:100E90004B4CA04215D04B4CA0421CBF4A4CA04228
:100EA0000FD01EE0D1F80CE01BE0C86800F1040E82
:100EB00017E0C86800F1080E13E0C86800F10C0ED6
:100EC0000FE0886810B94FF0040E0AE001284FF0D7
:100ED000080E14BFCAF81450CAF8105001E04FF0C1
:100EE000000EB6F5807F03D250464FEA870C05E02E
:100EF000A7F108040AF104004FEA840C046808FA18
:100F00000CF5AC430EFA0CF52C4304604868C000A5
:100F10009DD51868DFF8B4C040F0010018601C6867
:100F200004F001040094BC000098B8085CF820505C
:100F300004F00C0408FA04F925EA0909244DAA452D
:100F400008BF00250ED0234DAA4508BF012509D0B2
:100F5000214DAA4508BF022504D0204DAA450CBF4B
:100F60000325042505FA04F444EA09044CF820405A
:100F7000F0434C68E40294684CBF344304409460EE
:100F80004C68A402D4684CBF34430440D4604C681D
:100F90005568A4034CBF46EA050400EA05044FE780
:100FA000BDE8F18702B909040161704700040140FE
:100FB0001810024000001110000012100000211053
:100FC0000000221000003110000032100800014023
:100FD00000080140000C01400010014000140140D5
:100FE00080B50748016841F0100101600320FFF758
:100FF000A0FC0F20FFF714FB00F010F8002002BD4A
:1010000000200240002200F02BB8000002494A688C
:10101000087882184A607047102800200E4881B076
:10102000016841F001010160026802F001020092D2
:101030000099426842F080524260406800F080505F
:10104000009000980548016821F0E06141F00071CE
:10105000016001B0704700BF181002400400014059
:1010600000B500BF130096469446103928BFA0E88B
:101070000C50FAD85FEA417C28BF0CC048BF40F84A
:10108000042BC90728BF20F8022B48BF00F8012B0A
:1010900000BD30B5016884684218416802EB510315
:1010A000C9070BD54C4409E012F9011B12F8015B8A
:1010B000002904F8015B05D5491CF9D19A42F3D106
:1010C0000C3030BD491EF1D5F8E7000010B50749D6
:1010D00079441831064C7C44163404E00A68081D33
:1010E000114488470146A142F8D110BD0800000014
:1010F00024000000E7F4FFFFEC010000202800209E
:10110000000000008FFFFFFF4C01000064010000A1
:101110000000002000F00DF8002801D0FFF7D6FFF6
:10112000AFF300800020AFF30080FFF768FD00F010
:1011300002F80120704700F001B800000746384669
:1011400000F002F8FBE7000080B5AFF30080024A30
:1011500011001820ABBEFBE726000200FEE7FEE709
:10116000FEE7FEE7FEE770470148FFF7F9BA000027
:10117000BC290020704700000000000000000000B3
:101180000102030406070809014880470148004797
:101190007511000899110008AFF30080AFF30080CB
:1011A000FFF7B8FF0000000001020304FFF7FEBFD5
:1011B000FFF7FEBFFFF7FEBFFFF7FEBFFFF7FEBF63
:1011C000FFF7FEBFFFF7FEBFFFF7FEBFFFF7FEBF53
:1011D000FFF7FEBFFFF7FEBFFFF7FEBFFFF7FEBF43
:1011E000FFF7FEBFFFF7FEBFFFF7FEBFFFF7FEBF33
:1011F000FFF7FEBFFFF7FEBFFFF7FEBFFFF7FEBF23
:10120000FFF7FEBFFFF7FEBFFFF7FEBFFFF7FEBF12
:10121000FFF7FEBFFFF7FEBFFFF7FEBFFFF7FEBF02
:10122000FFF7FEBFFFF7FEBFFFF7FEBFFFF7FEBFF2
:10123000FFF7FEBFFFF7FEBFFFF7FEBFFFF7FEBFE2
:10124000FFF7FEBFFFF7FEBFFFF7FEBFFFF7FEBFD2
:10125000FFF7FEBFF30000288100810081008100BC
:101260008100810081008100810081008100810076
:101270008100810081008100810081008100810066
:101280008100810081008100810081008100810056
:101290008100810081008100810081008100810046
:1012A0008100810081008100810081008100810036
:1012B0008100810081008100810081008100810026
:1012C0008100810081008100810081008100810016
:1012D0008100810081008100810081008100810006
:1012E00081008100810081008100810081008100F6
:1012F0008100810081008100AE000001F900001032
:06130000FC0002127A005D
:040000050800119945
:00000001FF
