:020000040000FA
:1000000070280020190200009B0E0000270E00003F
:10001000990E0000550300001910000000000000B8
:100020000000000000000000000000008901000046
:10003000AD03000000000000AD010000C90E00008B
:1000400033020000330200003302000033020000DC
:1000500033020000330200003302000033020000CC
:1000600033020000330200003302000033020000BC
:1000700033020000330200003302000033020000AC
:10008000330200003302000033020000330200009C
:10009000330200003302000033020000330200008C
:1000A00033020000550F000033020000330200004D
:1000B000330200003302000033020000330200006C
:1000C000330200003302000033020000330200005C
:1000D000330200003302000033020000330200004C
:1000E00033020000330200003302000000F002F887
:1000F00000F03AF80AA090E8000C82448344AAF188
:100100000107DA4501D100F02FF8AFF2090EBAE885
:100110000F0013F0010F18BFFB1A43F0010318473B
:100120002C1100004C110000103A24BF78C878C18F
:10013000FAD8520724BF30C830C144BF04680C60ED
:10014000704700000023002400250026103A28BF35
:1001500078C1FBD8520728BF30C148BF0B60704739
:100160001FB51FBD10B510BD00F0A0F81146FFF778
:10017000F7FF00F0E1FF00F0BEF803B4FFF7F2FF75
:1001800003BC00F0C5F800001A4B19680868B0E815
:10019000F00F80F30988BFF36F8F4FF0000080F3FA
:1001A00011884EF00D0E704700000000EFF309803B
:1001B000BFF36F8F0F4B1A6820E9F00F106008B57E
:1001C0004FF0BF0080F31188BFF34F8FBFF36F8FE5
:1001D00000F0E6FF4FF0000080F31188BDE8084012
:1001E00019680868B0E8F00F80F30988BFF36F8FD3
:1001F000704700BF3000002006480068006880F3A8
:10020000088862B661B6BFF34F8FBFF36F8F00DF10
:1002100000BF00BF08ED00E00948804709480047DB
:10022000FEE7FEE7FEE7FEE7FEE7FEE7FEE7FEE7A6
:10023000FEE7FEE704480549054A064B7047000003
:10024000530F0000ED0000007022002070280020F5
:1002500070240020702400204FF0000200B51346E7
:1002600094469646203922BFA0E80C50A0E80C50D6
:10027000B1F12001BFF4F7AF090728BFA0E80C5087
:1002800048BF0CC05DF804EB890028BF40F8042B80
:1002900008BF704748BF20F8022B11F0804F18BFED
:1002A00000F8012B7047704770477047754600F0A3
:1002B0002BF8AE4605006946534620F007008546F8
:1002C00018B020B5FFF7B6FFBDE820404FF000069C
:1002D0004FF000074FF000084FF0000B21F007012E
:1002E000AC46ACE8C009ACE8C009ACE8C009ACE871
:1002F000C0098D46704710B50446AFF30080204614
:10030000BDE81040FFF739BF004870470C220020BD
:1003100001491820ABBEFEE726000200704700002E
:1003200008B509480090022300228021074800F008
:1003300049FF05480323001D009000228021044846
:1003400000F040FF08BD000010000020F110000088
:1003500011110000FEE7000070B5124A1068401C41
:10036000106003D1D2E90610C2E9060100209369AA
:100370000546012453F8201061B11668B14209D82E
:1003800043F82050966804FA00F18E439660566850
:1003900031435160401C2028ECDB03494FF0805072
:1003A000086070BD0000002004ED00E07047000010
:1003B0000348016821F00401016030BF704700006C
:1003C00010ED00E02DE9F84FDFF8A4910024A9F129
:1003D000040B23464FF00F0809F1040AABF1040E99
:1003E000BEE00127A7403A40BA4272D1DFF884C18B
:1003F0004D68A5EB0C0665452BD00DDC032D34D0E4
:1004000005DC35B3012D19D0022D2FD11BE0112DA4
:1004100016D0122D2AD119E0B6F5881F19D006DCA6
:10042000B6F5803F15D0B6F5801F1FD111E0B6F5A7
:10043000001F0ED0B6F5041F18D10AE0CB6815E0F6
:10044000CB681B1D12E0CB6808330FE0CB680C3380
:100450000CE08B682BB1012B4FF0080303D04761F0
:1004600004E0042302E0076100E00023FF2A01D832
:10047000064601E000F104064FEA840501D9A5F122
:100480002005376808FA05FC27EA0C0703FA05F58A
:1004900047EA050737604D68ED0060D5364DAE6917
:1004A00046F00106AE61AD6924F0030605F00105D2
:1004B0000095324D7719BE68A5072D0F08FA05FC87
:1004C00026EA0C06DFF8B8C0604503D14FF0000CF7
:1004D00017E044E0DFF8ACC0604502D14FF0010CFA
:1004E0000FE0DFF8A4C0604502D14FF0020C08E035
:1004F000DFF898C0604502D14FF0030C01E04FF0E7
:10050000040C0CFA05FC4CEA060CC7F808C04D6850
:10051000D9F80060ED024D4601D5164300E0964340
:100520002E604D68DAF80060AD02554601D51643DD
:1005300000E096432E604D68DBF80060AD035D4639
:1005400001D5164300E096432E604D68DEF800604A
:10055000ED03754601D5164300E096432E60641CFA
:100560000A6832FA04F57FF43CAFBDE8F88F00006A
:10057000080401400000111000100240000001407A
:1005800000080140000C014000100140001401402F
:100590000AB1016170470904FBE700000148806867
:1005A000704700003400002002488168027811443E
:1005B0008160704734000020074810B5016841F0A1
:1005C00010010160032000F09BF80F2000F006F8F6
:1005D00000F04AF8002010BD0020024030B505466A
:1005E0001C4887B0816941F400618161806905A977
:1005F00000F400600690684600F030F900F04EF913
:100600001549164AB0FBF1F11548491E026040F247
:10061000E732C26000220261C0E90112826100F08B
:1006200001FB040012D10E4800F02AFB04000DD19A
:10063000192000F037F8102D07D200222946192082
:1006400000F03EF80748056000E0012407B02046AE
:1006500030BD00000010024040420F00002C01405D
:10066000C4210020380000200C4808B5816941F001
:1006700001018161816901F001010091C16941F0CD
:100680008051C161C069064900F0805000904868FF
:1006900020F0E06040F00070486008BD00100240AB
:1006A00000000140002809DB00F01F0201219140F9
:1006B0004009800000F1E020C0F800117047000000
:1006C000F0B40E4B1B68C3F30223C3F10704042CE0
:1006D00000D904241D1D072D01D2002300E0DB1EDC
:1006E000012606FA04F56D1E0D409D409E40761EC3
:1006F000164045EA0601F0BC00F08FBC0CED00E0AE
:10070000064A00F0070110684FF6FF03184040EA60
:100710000120034908431060704700000CED00E021
:100720000000FA052DE9F0470D46040067D0DFF818
:100730001881D8F8000000F00700A8420CD2D8F8C1
:10074000001021F007012943C8F80010D8F8000074
:1007500000F00700A84252D120683C4E810712D514
:10076000400703D5706840F4E060706020780007AF
:1007700003D5706840F4605070607068A16820F024
:10078000F000084370602078C00727D06068012817
:1007900010D03168022810D0890700292FDA71683B
:1007A00021F0030101437160FFF7F8FE074641F2B3
:1007B00088390CE031688903EFE78901EDE7FFF73D
:1007C000EDFEC11B494502D90320BDE8F0877068E2
:1007D000616800F00C00B0EB810FF0D1D8F8001088
:1007E000404601F00701A9420BD9016821F0070139
:1007F00029430160006800F00700A84201D00120F1
:10080000E3E72078400705D57068E16820F4E060F0
:10081000084370602078000706D57068216920F4CD
:10082000605040EAC100706000F048F87168084A02
:10083000C1F30311515CC8400649086006480068CE
:10084000FFF7CCFE0020C0E700200240001002406D
:100850003212000040000020380000200F22026009
:100860000C4A536803F003034360536803F0F0033A
:100870008360536803F4E063C36052684FF4E0633D
:1008800003EAD20202610448006800F00700086031
:100890007047000000100240002002400448054953
:1008A00000684968044AC1F3C221515CC8407047DE
:1008B0004000002000100240421200000E4B596818
:1008C0000E4801F00C02042A11D0082A0FD10C485E
:1008D000C1F38342C903805C0AD55968084AC1F351
:1008E0004041921E515C054A5043B0FBF1F0704705
:1008F00004494843704700000010024000127A008B
:100900002212000000093D002DE9F84F04006FD0CD
:100910002078BE4DC00747D06868C0F38100012829
:1009200007D06868C0F38100022809D16868C00355
:1009300006D52868800337D560680028E7D033E003
:100940006068B0F5803F0BD010B1B0F5A02F11D08A
:10095000286820F480302860286820F4802002E095
:10096000286840F480302860606888B1FFF716FE80
:10097000064609E0286840F480202860F0E7FFF789
:100980000DFE801B642873D828688003F7D50BE020
:10099000FFF704FE064604E0FFF700FE801B642814
:1009A000F1D828688003F7D42078DFF864828007C4
:1009B0004FF0010A4FF0000939D5686810F00C0FAC
:1009C00007D06868C0F38100022809D16868C003B5
:1009D00006D42868800714D52069012808D110E0C2
:1009E0002069B0B1C8F800A0FFF7D8FD064605E0C1
:1009F00007E1FFF7D3FD801B0228C4D828688007D1
:100A0000F7D52868616920F0F80040EAC100286045
:100A10000DE0C8F80090FFF7C1FD064604E0FFF7BF
:100A2000BDFD801B022823D828688007F7D42078D2
:100A300000072CD57748A169D9B1C0F800A0FFF70D
:100A4000ADFD064604E0FFF7A9FD801B02280FD884
:100A5000686A8007F7D570484FF4FA510068B0FB18
:100A6000F1F0009000BF0098411E0091FAD20EE014
:100A70007CE0C0F80090FFF791FD064604E0FFF728
:100A80008DFD801B022871D8686A8007F7D4207812
:100A900040075BD5E8690027C00008D4E86940F04A
:100AA0008050E861E869012700F0805000905B48C1
:100AB0000168C90511D40168834641F48071016061
:100AC000FFF76CFD064604E0FFF768FD801B642815
:100AD0004CD8DBF80000C005F6D5E06801280AD044
:100AE00008B1052813D0286A20F001002862286A7E
:100AF00020F0040002E0286A40F001002862E0686B
:100B000041F2883B88B1FFF749FD064609E0286AB3
:100B100040F004002862EEE7FFF740FD811B5945D5
:100B20005BD8286A8007F7D50BE0FFF737FD06464C
:100B300004E0FFF733FD811B59454ED8286A800732
:100B4000F7D41FB1E86920F08050E861E069A8B3EC
:100B50006968C1F38101022946D00228484606D0BF
:100B6000C8F86000FFF71AFD044639E035E0474653
:100B7000C8F86000FFF712FD064604E0FFF70EFD1F
:100B8000801B022829D828688001F7D4206AB0F594
:100B9000803F05D16868A16820F400300843686090
:100BA000D4E908010843696821F4741108436860B6
:100BB000C7F860A0FFF7F2FC044605E023E0FFF76A
:100BC000EDFC001B022808D828688001F7D51AE040
:100BD000FFF7E4FC001B022802D90320BDE8F88FD0
:100BE00028688001F4D40EE00128F7D06868226AF2
:100BF00000F48031914204D1616A00F4701088429F
:100C000001D00120EAE70020E8E7000000100240E0
:100C10000000424280044242400000200070004038
:100C20007047704710B5040003D094F83D0010B130
:100C300007E0012010BD002084F83C00204600F0B1
:100C40001EF8022084F83D00211D206800F088F97C
:100C5000012084F8460084F83E0084F83F0084F8C0
:100C6000400084F8410084F8420084F8430084F88E
:100C7000440084F8450084F83D00002010BD704712
:100C800090F83D10012901D001207047022180F821
:100C90003D100168CA6842F00102CA6000680B4951
:100CA000884208D0B0F1804F05D00949884202D06F
:100CB0000849884204D1816801F00701062903D060
:100CC000016841F00101016000207047002C0140E3
:100CD000000400400008004070472DE9F041044640
:100CE0000068C66805694FF00007A90713D5B1076A
:100CF00011D5F91E016101202077206880698007E5
:100D0000204602D0FFF7E8FF04E000F07EF820461E
:100D100000F07CF82777680716D5700714D521688E
:100D20006FF004000861022020772068806910F4C9
:100D3000407F204602D0FFF7CFFF04E000F065F8C7
:100D4000204600F063F82777280715D5300713D51C
:100D500021686FF008000861042020772068C069CE
:100D60008007204602D0FFF7B7FF04E000F04DF8FF
:100D7000204600F04BF82777E80616D5F00614D584
:100D800021686FF010000861082020772068C06992
:100D900010F4407F204602D0FFF79EFF04E000F0F1
:100DA00034F8204600F032F82777E80708D0F0073B
:100DB00006D021686FF001000861204600F028F895
:100DC000280608D5300606D521686FF08000086136
:100DD0002046FFF725FF680608D5700606D521686E
:100DE0006FF040000861204600F01CF8A8060AD504
:100DF000B00608D521686FF0200008612046BDE8E4
:100E0000F041FFF70EBFBDE8F0817047704700006A
:100E100000680349884201D1FFF7C6BB7047000054
:100E2000002C01407047FEE770B586B000241848DA
:100E30000094019402940394816941F0100181614E
:100E4000816901F010010491816941F02001816103
:100E5000816901F020010491816941F004018161FF
:100E600080690C4E00F004004FF4005504900022FD
:100E700029463046FFF78CFB01200095CDE901049F
:100E80000220039069463046FFF79CFA06B070BD19
:100E90000010024000100140FEE7FEE708B50848D8
:100EA0000649002381618031C1610C3000901A46EF
:100EB0008021044800F086F908BD0000C42000200D
:100EC000000000203111000010B5BF2072B6EFF312
:100ED000118480F31188BFF34F8FBFF36F8F62B619
:100EE000FFF73AFA72B684F31188BFF34F8FBFF35E
:100EF0006F8F62B610BD30B58FB028216846FFF7FE
:100F0000ABF914210AA8FFF7A7F901200104002476
:100F10008DE8130004904FF4E010CDE9081002258D
:100F200007956846FFF7F0FC08B172B6FEE70F20A0
:100F3000CDE90A054FF48060CDE90C4002210AA8F2
:100F40000E94FFF7EFFB002801D072B6FEE70FB05A
:100F500030BD70470148FFF7C0BE0000C42100202B
:100F6000F0B50268194C1A4D1A4E4FF08047A04256
:100F700005D0B84203D0A84201D0B04203D122F03C
:100F800070034A681A43A04205D0B84203D0A84271
:100F900001D0B04203D122F44073CA681A434B69AE
:100FA00022F080021A4302608A68C2620A68826282
:100FB000A04201D109690163012141610169C907A9
:100FC00003D0016921F001010161F0BD002C014055
:100FD00000040040000800400D4B10B51A681118BD
:100FE000186B9142426801D2DC6900E09C6944F8C8
:100FF000221001790120884099680143996059685D
:101000008143596003494FF08050086010BD0000D3
:101010000000002004ED00E0FEE70907090E0028AB
:1010200004DB00F1E02080F80014704700F00F00AE
:1010300000F1E02080F8141D70470000114810B541
:10104000114A410707D0C01D0E4B20F00700D168A0
:10105000C31AC91AD1600023C2E90003D468A0F101
:10106000080121444C0703D021F007010C1AD46079
:1010700091604B6091680B6091680160D16841603C
:1010800010BD0000440000202000002070B50026A4
:1010900000F10804600704D004F00700C0F1080064
:1010A0000444124DA86808B9FFF7C8FF0F49286823
:1010B00002E001460068B0B14268A242F9D302687A
:1010C0000A60426800F10806131B102B05D90219AB
:1010D000536044600B6813600A60E9684268891ACB
:1010E000E96000210160304670BD00002000002052
:1010F000064D4FF400544FF47A76002221462846DC
:10110000FFF746FA3046FFF767FFF6E700100140A9
:10111000064D4FF400544FF4FA760122214628463A
:10112000FFF736FA3046FFF757FFF6E700100140A9
:10113000FFF73EF9FCE70000FFF73EFAFFF7DBFEA2
:10114000FFF772FEFFF7AAFEFFF7EAF80A48016808
:1011500041F47F010160016841F07F4101604FF07F
:10116000E0200021016181610449416107210161A1
:10117000FFF742F8FEE7000020ED00E03F19010014
:1011800010B54FF0807440F8044C21F0010140F894
:10119000203C40E9032119684038C86010BD0000B8
:1011A000064A5068B0FA80F14FF01F00A0EB010032
:1011B000034951F820001063704700000000002030
:1011C000442000202DE9F04380461D4691460E46FE
:1011D0000420079FFFF75AFF044638600E4840F886
:1011E0002540B0006560FFF751FF6FF0030101EB90
:1011F0008601A060084420F007003B464A4641466D
:10120000FFF7BEFF20600548046301214268A94042
:1012100011434160BDE8F08344200020000000201D
:10122000010202030405060708090A0B0C0D0E0F44
:101230001010000000000000000001020304060777
:101240000809000000000102030400006C12000005
:10125000000000204400000028010000B01200003F
:10126000440000202C280000440100000000000081
:10127000000000000000000000000000000000006E
:10128000000000000000000000000000000000005E
:10129000000000000000000000200000000000002E
:1012A00001000000100000000000000000127A00A1
:04000005000000ED0A
:00000001FF
