:020000040800F2
:10000000603A0020A901000845250008991F000852
:1000100041250008350F0008F131000800000000FC
:10002000000000000000000000000000E1300008B7
:10003000390F00080000000091300008213100084D
:10004000C3010008C3010008C3010008C301000880
:10005000C3010008C3010008C3010008C301000870
:10006000C3010008C3010008C3010008C301000860
:10007000C3010008C3010008C3010008C301000850
:10008000C3010008C3010008C3010008C301000840
:10009000C3010008C3010008C3010008C301000830
:1000A000C301000885310008C3010008C30100082E
:1000B000C3010008C3010008C3010008C301000810
:1000C000C3010008C3010008C3010008C301000800
:1000D000C3010008C3010008C3010008C3010008F0
:1000E000C3010008C3010008C301000800F002F8C2
:1000F00000F04AF80AA090E8000C82448344AAF178
:100100000107DA4501D100F03FF8AFF2090EBAE875
:100110000F0013F0010F18BFFB1A43F0010318473B
:10012000C43D0000E43D0000103A24BF78C878C107
:10013000FAD8520724BF30C830C144BF04680C60ED
:10014000704700000023002400250026103A28BF35
:1001500078C1FBD8520728BF30C148BF0B60704739
:10016000642900F0AB80732900F05B8100207047A8
:100170001FB59DE8030000F0ABFC00F085F91FBD42
:1001800010B500F0EAF910BD00F020FA1146FFF7B3
:10019000EFFF03F0C3F900F0CDF803B4FFF7F0FF71
:1001A00003BC00F00DFA00000948804709480047E9
:1001B000FEE7FEE7FEE7FEE7FEE7FEE7FEE7FEE717
:1001C000FEE7FEE704480549054A064B7047000074
:1001D00081310008ED000008602E0020603A002008
:1001E00060320020603200200FB4044910B503AA29
:1001F000029800F01BF910BC5DF814FB9C00002075
:100200002DE9F0410E460446002020622046E168B8
:10021000884730B3252805D0D4E901219047206ACA
:10022000401CF2E7E168204600278847050018D007
:10023000A5F14100192802D820354FF40067324655
:10024000294620462760FFF78BFF40B1012804D0E4
:10025000F61D26F007060836D8E7361DD6E72846ED
:10026000DAE7206ABDE8F08170B50C460546012A40
:1002700005D02878800600D5EA69002302E0012332
:1002800005E05B1C934202D2E05C0028F9D1A8692A
:10029000E618C01AA861286A184428622846AFF3F5
:1002A000008004E0D5E9012114F8010B9047B44225
:1002B000F8D32846AFF3008070BD00002DE9F0416F
:1002C0000646002410687529314616A510D0AFF3F4
:1002D0000080002802DA404213A507E031688A074F
:1002E00001D512A502E0490704D511A5012401E0BA
:1002F000AFF3008000210A2206F1240709E0B0FBD9
:10030000F2FCB0FBF2F302FB1C00303078541846CC
:10031000491C0028F3D123462A463046BDE8F04167
:1003200000F014B8000000002D0000002B000000B9
:100330002000000010B50446AFF300802046BDE861
:100340001040FFF72ABF7047704770472DE9F0470C
:100350000D4699469246044600F124080168880635
:1003600004D5E06921F01001216000E00120A842DD
:1003700001DD471B00E00027A1697A1902EB0900A3
:10038000081AA0612078C00602D42046AFF300808E
:10039000002608E0D4E901211AF806009047206AF7
:1003A000401C761C20624E45F4DB2078C0060AD53E
:1003B0002046AFF3008006E0D4E9012130209047C9
:1003C000206A401C2062381EA7F10107F4DC07E018
:1003D000D4E9012118F805009047206A401C2062EA
:1003E000281EA5F10105F3DC2046AFF3008020783C
:1003F000000602D50220BDE8F0870120FBE710B51A
:10040000436913B1AFF3008001E0FFF72DFF012036
:1004100010BD127800F124010A7000224A700122F6
:10042000EDE711684FF0FF32E9E70000074B70B5C8
:100430000D467B4400F011F80446284600F020F8F1
:1004400010B14FF0FF3070BD204670BD1932000072
:1004500001694A1C02610878704700B58FB0CDE988
:1004600001310021059105497944CDE90310114678
:100470006846FFF7C5FE0FB000BD0000E5FFFFFFB7
:10048000007B00F08000704710B54248542100F016
:10049000A2FA4148542100F09EFA4048542100F04D
:1004A0009AFA3F493B483C4A3F4B08603D490A6045
:1004B0003A491960531C0365481C10650120086502
:1004C0003B48344A39A1784400F0E0F920B9384873
:1004D00078440A3800F078FA37482F4A35A1784432
:1004E00000F0D4F920B9344878440A3800F06CFAA6
:1004F00032482A4A2FA1784400F0C8F920B92F4881
:1005000078440A3800F060FA40232248DC000021D9
:10051000224600F098F920B125487844543800F07C
:1005200053FA1D4822464023002100F08CF920B1E7
:1005300021487844543800F047FA184822461023DE
:10054000002100F080F9002806D01C487844BDE85E
:100550001040563800F038BA10BD104870B5006D24
:1005600020F001040B4800F009FA0B4800F006FAED
:100570000A4800F003FA09E0206D20F0010520464A
:1005800000F0FCF9204600F046F82C46002CF3D190
:1005900070BD0000480000209C000020F0000020FA
:1005A000000000200400002008000020720000006D
:1005B000A0310000770000008C310000783100008D
:1005C00001491820ABBEFEE726000200754600F088
:1005D0005DFAAE4605006946534620F007008546A1
:1005E00018B020B5FFF7EEFDBDE820404FF0000643
:1005F0004FF000074FF000084FF0000BAC46ACE89E
:10060000C009ACE8C009ACE8C009ACE8C00921F0F9
:1006100007018D46704770B50446051F00F03CFA8F
:100620000068002C14BF446870BD002C18BFAC4299
:100630003CBF20466468F8D301680A18AA4218BF74
:10064000456003D12A6805461144016028684119B4
:10065000A1421CBF6C6070BD61686960216808447C
:10066000286070BD2DE9F05F054617460C46C86846
:1006700020F4201040F48000C860800602D50846AF
:1006800000F063FBE06841F282014FF0FF3A014065
:10069000022903D0204600F0F5FAB9E000F4204129
:1006A000B1F5004F0FD1C00306D56168E06A8842FA
:1006B00000D80846606006E02069E062606060691A
:1006C00000F0DDF9A061A0680022EEB200280DDA8A
:1006D000E1688B050AD4C043A06041F490302260E9
:1006E000E0606068411C61600670AAE0E0689146C5
:1006F000226040F40050E060206978BB606900F03F
:10070000B0F904F124054FF00108A8B1A08910F454
:10071000407F08D0E06900F00AFA206118B1E06873
:1007200040F4006017E0C4F81C802561E06820F404
:10073000407040F480600EE0E06900F0F8F90028B5
:100740002061F0D0E06840F4006010F4407FE06089
:1007500002D140F48070E06020696060E068256943
:100760006FF0010BC1051ED56168E06A884200D8B0
:100770000846411B04D02246284600F08DFAE8BB0B
:100780001FB1E562C4E9015959E0681CE06260608C
:10079000E069401EA060E06840F48030E0603046D0
:1007A0002E70BDE8F09F17B100F480320AE0606857
:1007B000411C61600670E0680A2E40F48030E06001
:1007C00006D00022E16A6068814203D90B4602E04C
:1007D0000122F7E70346B4F80CC05B1B5FEA4C5CF0
:1007E00004D4D4F81CC09C4500DD02B3814200D87B
:1007F0000146002BA1EB0008E56200E008E0C4E937
:10080000015907DD22461946284600F045FA08B18D
:100810005046C6E7B8F1000F09D0A169E5626560EE
:10082000A1EB0800A061E06840F01000E06047B173
:100830006168A069E562491B08446560A06158468B
:10084000AFE73046ADE770B5C468A50713D06502C1
:1008500011D4B2F5807F09D0B2F5007F06D0B2F591
:10086000806F08D1012300F1240106E05D1E6FF0C6
:100870007F46B54201D3012070BD0161C361416073
:1008800024F470611143C160002070BD2DE9F04176
:100890000C461646070047D0104600F06FF8207847
:1008A000611C61280AD0722802D077283CD102E06E
:1008B0000125002405E00225042402E0082448F272
:1008C000020511F8010B2B2806D0622809D011F877
:1008D000010C74280AD00BE045F0030544F0020433
:1008E000EFE745F0040544F00104EAE744F01004A2
:1008F0003846214600F096F8411C15D000213161A0
:1009000071604FF40071F560F1617061200704D5EA
:1009100030460222002100F039F9306D40F001002C
:1009200030653046BDE8F0810020FBE72DE9F0415D
:100930000D460646104C206DC10704D0410804D076
:1009400020F00104F7E722460EE0542000F0EFF813
:1009500007000ED0206D47F00101084354212065A7
:10096000384600F038F83A4629463046BDE8F041AE
:100970008CE70020D6E70000480000202DE9F04772
:1009800004464FF0FF380026C568D4E90497A8074D
:1009900018D0204600F0B6F9384600F04DF800288F
:1009A00000DA4646280502D54846FFF734FE4C21BA
:1009B000204600F010F8206D20F001002065304640
:1009C000BDE8F0874046FBE710B500F0E5F9BDE86B
:1009D000104000F0DBB94FF0000200B5134694461A
:1009E0009646203922BFA0E80C50A0E80C50B1F187
:1009F0002001BFF4F7AF090728BFA0E80C5048BF9B
:100A00000CC05DF804EB890028BF40F8042B08BF38
:100A1000704748BF20F8022B11F0804F18BF00F834
:100A2000012B70470EB5CDE9000100F031FA0290BC
:100A300069460120ABBE0EBD08B569460090022094
:100A4000ABBE08BD1FB58DE8070069460520ABBEEB
:100A500004B010BD1FB58DE80F0069460620ABBE7F
:100A6000F6E708B5694600900920ABBE08BD1CB585
:100A7000CDE9000169460A20ABBE1CBD704708B530
:100A8000694600900C20ABBE08BD000000487047CE
:100A90004401002070470000004870474C010020CE
:100AA000704770477047704738B504460A460020C3
:100AB0006946AFF30080002808BF38BD02460099A0
:100AC000204600F08AF9012038BD012000F0D9B994
:100AD000F8B5AFF30080054600200C46102000BF9B
:100AE0000646A819A0420DD9324669460020AFF348
:100AF0000080070008BF00F0C4F90098A04218BFAA
:100B00000546C419FFF7C8FF05600746F01D20F031
:100B100007004619284600F059F9B44208BFF8BD4D
:100B2000A21B31463868BDE8F84000F056B970B5F0
:100B30000646FFF7B1FF056806F10B0020F0070439
:100B4000B4429CBF002070BD2B466A68BAB11068E1
:100B5000A04210D304F1080188423CBF506858609D
:100B600007D35168101941601168091B0160586072
:100B70001460101D70BD13465268002AE7D121464B
:100B80002846FFF791FF0028DED170BD2DE9F04126
:100B9000044616460D464769007B80072ED038462E
:100BA000FFF75FFF50BB3EB3012E02D0022E25D1CE
:100BB00004E0204600F02BF905441DE03846FFF71D
:100BC0005EFFE168002841F01001E16005DA20468F
:100BD00000F058F80120BDE8F081C9030BD5626828
:100BE000E16A914200D81146A26911442269891A2A
:100BF000814200DD08460544002D01DA0220EAE7C3
:100C0000E16A6068E268814206D29103E06203D53E
:100C100022F4003141F01002A6690027AE4213DC35
:100C2000E16A814201D90B4600E0034603EB060C62
:100C30002369ACEB030CAC4506DD814201D98C463F
:100C400000E084469C4505D1A760276042F0200063
:100C5000A5620DE0AD1BE669AE1B8142A66000D91E
:100C60000846C01A281A20605819606022F0200037
:100C700003490840E060002084F84870ABE70000BA
:100C8000BFCFD7FFC16821F4001141F08001C160DE
:100C900000218160016070472DE9F74F15460C4631
:100CA0004FF0FF3B3848D768D2F814A0074209D06C
:100CB0005046A969FFF7DBFE002819DB3248C04324
:100CC0000740EF604FF000496FF000484C4501D3FA
:100CD000464600E0264600993B4650463246FFF71E
:100CE000B1FEA96920F00042B21A1144A96128B1ED
:100CF0002846FFF7C7FF5846BDE8FE8FA41BE5D185
:100D00000020F9E770B504460569C06A6168884249
:100D100000D80846E16821F42011E160C90312D52A
:100D2000A84208D02246411B2846FFF7B5FF10B164
:100D30004FF0FF3070BD0020E562C4E90150E0686B
:100D400020F48030E060002070BD10B50446C0681B
:100D500020F02000E060A16AA06988420DD0204602
:100D6000FFF7D0FFE06820F4405040F01000E06052
:100D7000A06AA0612069E062606044F24001E0681E
:100D80008843E06010BD000010000200002801D080
:100D9000FFF716BC7047000010B5014602A000F036
:100DA00057F8012010BD00005349475254524544A2
:100DB0003A2052656469726563743A2063616E27F4
:100DC00074206F70656E3A20000000000021016001
:100DD000C0E90110704710207047034640688C46F8
:100DE000002818BF88423CBF03464068F8D3186803
:100DF0001844884207D00CF1030020F00700001DC2
:100E0000411A521A0146081D0A60FFF704BC10B5CA
:100E10000146C268900703D0900607D5886A0AE0A9
:100E200000F05CF801210160881E10BD8B694868E4
:100E300018440B69C01A91F848301BB191F8491059
:100E4000401A10BD1103FCD50028FADD401E10BD6C
:100E500070B505460C460A2000E06D1C00F037F81E
:100E600035B128780028F8D102E0641C00F02FF892
:100E700014B120780028F8D1BDE870400A2000F0B5
:100E800026B810B500F02EF8BDE81040FFF77EBF81
:100E900010B5431C02E010F8011B71B18107FAD1B3
:100EA0004FF0013202C88C1A8C4314EAC211F9D0F7
:100EB000C01A0A0603D0C01E10BDC01A10BD0A0415
:100EC00001D0801E10BD0902FCD0401E10BD08B527
:100ED00069468DF800000320ABBE08BD004870478E
:100EE0004401002010B5012805D0002103A0FFF720
:100EF000AFFF012010BD09A1F8E700005349475298
:100F0000544D454D3A204F7574206F6620686561D9
:100F100070206D656D6F7279000000003A204865A1
:100F20006170206D656D6F727920636F727275707C
:100F300074656400FEE7000070470000EFF3108066
:100F400072B600BFFEE70000B0B5044600F01EF91F
:100F5000054640F20C00C2F200000078611C18BF88
:100F6000044400BF00F012F9401BA042FAD3B0BD08
:100F70002DE9F04F82B00E68002E00F0038141F29F
:100F80000042C4F20102042340F2004E904208BF26
:100F900003234FF6FF7CC4F2010E009300240123CB
:100FA000C1F2100C4FF0000A4FF0000949E000BFF9
:100FB000012704F00C030F229A402BEA020207FAE1
:100FC00003F34FEA9A051A4346F82520D1F804B0F6
:100FD00040F20C455FEACB22DEF8082054BF22EA3B
:100FE000080242EA0802C4F20105CEF808202A6885
:100FF0005FEA8B2354BF22EA080242EA08022A6011
:101000005FEA8B33DEF8042054BF22EA080242EA8A
:1010100008025FEACB33CEF80420DEF800204FF060
:10102000010354BF22EA080242EA0802CEF8002077
:101030000E680AF1010A36FA0AF204F1040400F01B
:10104000A18003FA0AF816EA080FF1D04E68664547
:1010500012DC122E56D8DFE806F0350B45495555FF
:1010600055555555555555555555554D510000BF7C
:10107000D1F80C9046E000BF4FF6FF72C1F221029A
:1010800096420FDC0022C1F2110296421AD00022D1
:10109000C1F21202964215D00022C1F221029642FC
:1010A00010D02FE00022C1F2220296420AD0002284
:1010B000C1F23102964205D00022C1F232029642BC
:1010C00020D100BF8A684AB1012A14BFC0F8148039
:1010D000C0F810804FF0080914E000BF4FF0040979
:1010E00010E000BFCA6802F108090BE04FF00009E8
:1010F00008E000BFCA6802F1040903E0CA6802F10F
:101100000C0900BF22460646BAF1080F24BF203A58
:10111000043637680F25954027EA050509FA02F2DB
:101120002A433260CA79D2067FF582AF41F21803B2
:10113000C4F202031A68AEF57E7642F001021A602C
:101140001A6802F001020192019A2AF0030256F88D
:1011500002B040F60002C4F20102904210D040F604
:101160000042C4F2010290423FF422AF41F2000279
:10117000C4F20102009F904208BF022719E700BF96
:10118000002716E702B0BDE8F08F000042F6586075
:10119000C2F200000068704770B5B8B3044690F81A
:1011A0003D0028B9002084F83C00204600F05CF99E
:1011B000242084F83D002068016821F001010160CD
:1011C000016841F400410160016821F400410160BF
:1011D00000F06AFB48F28041C0F21E0140F60013A5
:1011E000D4F804E088424FF00001C0F23D0348F219
:1011F000A16C4FF0000238BF01219842C0F2010CEF
:1012000038BF0122E64538BF0A460AB1012070BD49
:101210004DF68361C4F21B31A0FB01122168950CCD
:101220004B684FF4967623F03F0343EA92437543AD
:1012300044F6D3564B60C1F262060B6AA5FB065614
:10124000B50923F03F03E64538BF950C6A1C1A43E5
:101250000A62CA6948F2A0664CF6FF73C0F2010642
:10126000B64522EA03020BD801384FEA4E03B0FB21
:10127000F3F001306FF31F30042898BF04201EE004
:10128000A368013863B119230EFB03F3B0FBF3F03D
:1012900001306FF31F3078B100F5804008E000BFE7
:1012A0000EEB4E03B0FBF3F001306FF31F3028B1AB
:1012B00000F5004003E000BF012000E001201043E2
:1012C000C8610868D4E9072320F0C0001043184320
:1012D0000860886848F2FF3204F10C0690434CCE57
:1012E00018431043A5698860C86820F0FF003043A8
:1012F0002843C860086840F00100086000202021F1
:10130000206484F83D10206384F83E0070BD000026
:101310002DE9F04383B0994616460F460446FFF781
:1013200035FF94F83D10202920D10546206800BFE4
:101330008169890716D5FFF729FF411B20681A2903
:10134000F6D381698907F3D500202021206384F832
:101350003D1084F83E00216C41F02001216484F8A6
:101360003C0003E094F83C10012903D1022003B0B3
:10137000BDE8F083012284F83C200368DDE90B1806
:101380000A9ADB0703D1036843F001030360036893
:1013900023F400630360212084F83D00402084F89A
:1013A0003E000020206462626185608D39462085A0
:1013B0000020CFF6FF70E062204632464B46CDF863
:1013C0000080019500F0EAFD20B1012003B0BDE8E6
:1013D000F08300BF208D98B9204641462A4600F090
:1013E00041FE88B3206C0428EFD12068016841F4E5
:1013F00000710160012003B0BDE8F0830004EBD070
:10140000204641462A4600F0E7FF0028EAD1616AFB
:101410002268084610F8013B1361238D6062581E54
:101420002085678D013F678557697F07E6D50704EB
:10143000E4D048781061881C6062981E2085618D18
:1014400001396185DAE700BF2068016841F4007165
:101450000160202084F83D00002084F83E0084F8DC
:101460003C0003B0BDE8F08310B586B045F2004102
:101470000068C4F2000100228842049202D006B043
:1014800010BD00BF41F21804C4F20204206840F00D
:1014900008002060206800F0080001900198C0203A
:1014A0000290122003900320059001F5384002A914
:1014B000FFF75EFD606840F400106060606800F453
:1014C00000100190019806B010BD000040F20C0021
:1014D00042F65861C2F20000C2F2000100780A68C8
:1014E000104408607047000080B542F20000C4F26A
:1014F0000200016841F010010160032000F0C2F811
:10150000002000F005F800F05BF8002080BD00002E
:10151000B0B586B041F21801C4F202010A6804466F
:1015200042F400620A60096801A801F400610191B7
:101530000199694600F096F900F0CAF94DF6836109
:10154000C4F21B31A0FB01014FF0FF3000EB9141D1
:1015500042F60C6042F60042C2F20000C4F2010200
:1015600040F2E7330025C0E90021C0E902530561DC
:10157000856100F09FFB054610B1284606B0B0BD5E
:1015800042F60C60C2F2000000F014FC0546002890
:10159000F3D1192000F036F80F2C0DD81920214670
:1015A0000022002500F042F840F21000C2F20000D4
:1015B0000460284606B0B0BD0125284606B0B0BD7F
:1015C00082B041F21800C4F202000168022241F028
:1015D00001010160016801F0010101910199416877
:1015E00041F080514160406800F0805000900098C8
:1015F0000420C4F20100016862F31A61016002B0C4
:1016000070470000002848BF7047C1B200F01F00BB
:10161000012202FA00F04EF20012CEF2000242EA7B
:10162000D10121F0030108607047000010B54EF6AB
:101630000C5CCEF2000CDCF80030C3F3022E8EF00E
:101640000704042C28BF0424BEF103034FF0FF3E1F
:101650000EFA04F438BF0023A14399400EFA03F3B5
:101660009A43114300F00F0200F160430901043A6C
:1016700003F564436244002848BF02F10C0319706B
:1016800010BD00004EF60C51CEF200010A684FF674
:10169000FF031A4060F30A2242F0806040F0FD70C0
:1016A000086070472DE9F04381B0002800F0858084
:1016B00042F20008C4F202080446D8F800000D46C1
:1016C00000F0070088420CD2D8F8000020F0070094
:1016D0002843C8F80000D8F8000000F00700A8422E
:1016E0006BD1206841F204098107C4F2020917D5C1
:1016F000410705D5D9F8001041F4E061C9F80010A0
:10170000010705D5D9F8001041F46051C9F800105F
:10171000D9F80010A26821F0F0011143C9F80010B7
:10172000C00741D1D8F8000000F00700A8420CD94A
:10173000D8F8000020F007002843C8F80000D8F8C7
:10174000000000F00700A84237D12068410707D504
:10175000D9F80010E26821F4E0611143C9F80010E3
:10176000000708D5D9F80000216920F4605040EA4C
:10177000C100C9F80000D9F8002002F00C000828C8
:1017800041F20020C0F27A0050D143F69863C2F3D0
:101790008341C0F60003595CD2033BD440F60010ED
:1017A000C0F23D00484341E0606802280AD00128A9
:1017B0002AD159F8041C890308D4012001B0BDE8DE
:1017C000F08300BF59F8041C8901F6D5D9F8001040
:1017D00021F003010843C9F80000FFF7D7FC0646D3
:1017E00041F28837D9F80000616800F00C00B0EBD6
:1017F000810F97D0FFF7CAFC801BB842F2D90320B3
:1018000001B0BDE8F08300BF59F8041C8907D4D5A6
:10181000DCE700BFD9F8002043F69663C2F34042EC
:10182000C0F600039A5C4843B0FBF2F0D9F8001010
:1018300043F27662C1F30311C0F60002515C40F23C
:101840002C0220FA01F140F21000C2F20000006800
:10185000C2F200021160FFF75BFE002001B0BDE89C
:10186000F08300000F22026041F20402C4F202027F
:10187000136803F003034360136803F0F00383600D
:10188000136803F4E063C36012684FF4E06303EA93
:10189000D202026142F20000C4F20200006800F0CD
:1018A000070008607047000040F22C0041F204017C
:1018B000C2F20000C4F202010068096843F28662C5
:1018C000C1F30221C0F60002515CC840704700001D
:1018D00040F22C0041F20401C2F20000C4F2020105
:1018E0000068096843F28662C1F3C221C0F60002B3
:1018F000515CC840704700002DE9F04182B00028DB
:1019000068D00446007841F20006C007C4F202061F
:1019100025D0706800F00C0004281BD0706800F01F
:101920000C00082802D17068C00313D46068002836
:1019300000F06881B0F5A02F00F07C81B0F5803F09
:1019400000F07C81306820F480303060306820F412
:10195000802076E13068800301D56068D0B32078BC
:10196000800718D5706810F00C0F07D0706800F071
:101970000C0008286ED17068C0036BD430688007F3
:1019800002D52069012825D13068616920F0F8006E
:1019900040EAC1003060207800071FD4207840075B
:1019A00032D4E56995B1706800F00C00082840F069
:1019B0008F80012D0ED07068216A00F480328A4237
:1019C00008D1616A00F47010884203D1002002B08F
:1019D000BDE8F081012002B0BDE8F081A0690028D7
:1019E00062D00020C4F242200121C0F88014FFF729
:1019F000CDFB0546706A800700F18C80FFF7C6FBBF
:101A0000401B0228F6D92AE1F06910F0805808D16D
:101A1000F06940F08050F061F06900F08050009073
:101A2000009847F20007C4F200073868C00529D4BF
:101A3000386840F480703860FFF7A8FB054600BFA7
:101A40003868C0051ED4FFF7A1FB401B6428F7D9F6
:101A500005E100BF2069002840F20000C4F24220E6
:101A600000F0828001210160FFF790FB054600BF76
:101A7000306880073FF588AFFFF788FB401B0228DE
:101A8000F6D9ECE0E068002800F08080052800F03E
:101A90009780012800F09880306A20F001003062C1
:101AA000306A20F0040092E00020C4F242200021BD
:101AB000C0F88014FFF76AFB054600BF706A800714
:101AC0007FF56CAFFFF762FB401B0228F6D9C6E03A
:101AD0000027C4F2422700203866FFF757FB022D8B
:101AE00005460BD13068800140F1BE80FFF74EFB08
:101AF000401B02284FF00300F4D968E730688001EA
:101B00007FF564AFFFF742FB401B02284FF0030054
:101B1000F4D95CE740F22C00C2F20000006844F601
:101B2000D351C1F26201A0FB0101480A019000BF3C
:101B300000BF0198411E002801913FF42FAF00BF64
:101B40000198411E002801913FF428AF00BF019881
:101B5000411E002801913FF421AF00BF0198411EB2
:101B600000280191E4D119E700210160FFF70EFB85
:101B7000054600BF306880077FF50DAFFFF706FB15
:101B8000401B02284FF00300F4D920E7306A20F010
:101B900001003062306A20F004003062FFF7F6FA8C
:101BA000054641F2883700BF306A800720D5FFF72D
:101BB000EDFA401BB8424FF00300F5D907E700BF2C
:101BC000306A40F004003062306A40F00100306258
:101BD000FFF7DCFA054641F2883700BF306A80071C
:101BE00006D4FFF7D3FA401BB842F7D937E000BF5D
:101BF000B8F1000F7FF4D5AEF06920F08050F061AD
:101C0000CFE600BF306820F480303060306820F4C8
:101C100080203060FFF7BAFA054600BF30688003C5
:101C20007FF59DAEFFF7B2FA401B64284FF003002A
:101C3000F4D9CCE6306840F480203060306840F45D
:101C400080303060FFF7A2FA054600BF306880039D
:101C50003FF585AEFFF79AFA401B6428F6D90320BA
:101C600002B0BDE8F08100BF206AB0F5803F05D129
:101C70007168A26821F40031114371607168626A71
:101C800021F4741111430843706001203866FFF796
:101C90007DFA0446306880013FF598AEFFF776FA8A
:101CA000001B02284FF00300F4D990E670470000B3
:101CB00070470000002804BF0120704710B504469B
:101CC00090F83D0028B9002084F83C00204600F040
:101CD0006FF8022084F83D00206840F2FF7302682C
:101CE000C4F2000342F6004C9842C4F2010C15DC29
:101CF000B0F1804F1AD040F20041C4F20001884296
:101D000014D0984218DCB0F1804F1DD040F2004151
:101D1000C4F20001884217D01AE000BF604505D028
:101D200040F60001C4F200018842EAD1A16822F025
:101D300070020A439842E6DD604505D040F6000196
:101D4000C4F20001884203D1216922F440720A439F
:101D5000A36922F08001D4F804E0E26819436045E9
:101D60000160C262C0F828E002D16169CCF830108D
:101D7000012141610269D20703D0026922F0010208
:101D80000261002084F8461084F83E1084F83F1069
:101D900084F8401084F8411084F8421084F843100D
:101DA00084F8441084F8451084F83D1010BD0000FC
:101DB0007047000090F83D1001291CBF01207047BA
:101DC000022180F83D10006840F2FF72C168C4F241
:101DD0000002904241F00101C16009DCB0F1804F86
:101DE00012D040F20041C4F2000188420CD012E04F
:101DF00042F60041C4F20101884205D040F60001DC
:101E0000C4F20001884206D1816801F00701062969
:101E100004BF00207047016841F00101016000200B
:101E2000704700007047000070B504460068C56840
:101E30000669B10716D515F0020113D06FF0020143
:101E40000161012121778069800703D02046FFF7D7
:101E5000E9FF05E0204600F08FF8204600F08EF8FC
:101E600000202077700719D515F0040016D02068DF
:101E70006FF00401016102212177806910F4407F35
:101E800004D02046FFF7CEFF06E000BF204600F05A
:101E900073F8204600F072F800202077300717D53D
:101EA00015F0080014D020686FF0080101610421CA
:101EB0002177C069800703D02046FFF7B3FF05E014
:101EC000204600F059F8204600F058F8002020770E
:101ED000F00619D515F0100016D020686FF010012B
:101EE000016108212177C06910F4407F04D02046A9
:101EF000FFF798FF06E000BF204600F03DF82046BF
:101F000000F03CF800202077F00718BF15F0010022
:101F100002D1300609D412E020686FF0010101619E
:101F2000204600F02DF8300609D515F0800006D0C7
:101F300020686FF0800101612046FFF7B7FE700650
:101F400009D515F0400006D020686FF0400101610E
:101F5000204600F01FF8B00658BF70BD15F02000F5
:101F600008D021686FF0200220460A61BDE8704069
:101F7000FFF79EBE70BD0000704700007047000074
:101F8000006842F60041C4F20101884218BF704760
:101F9000FFF79CBA70470000FEE700002DE9F04310
:101FA00083B0044600680D4601680A9F0B9E41F409
:101FB000807199469046016020464FF00111002241
:101FC0003B46009600F0AEF850B120680068C005AE
:101FD00044BF4FF400702064032003B0BDE8F083D9
:101FE000206805F0FE0101610221C0F201012046D6
:101FF0003A46334600F080F920B1012003B0BDE835
:10200000F08300BF002002902068324641690291AF
:102010008069394602900298204600F0DDF958B1F7
:10202000206C0428E9D12068016841F40071016046
:10203000012003B0BDE8F0832068B9F1010F0AD098
:102040004FEA1821016120463946324600F0C4F9B2
:102050000028E5D120685FFA88F10161002003B013
:10206000BDE8F08370B50368044653F8140F4007C9
:1020700011D40E46481C29D086BB00BF1868400505
:1020800027D4FFF783F8236853F8140F400739D596
:1020900018684007F2D5002070BD00BF18684007DF
:1020A000F9D41868400514D418684007F3D41868A8
:1020B00040050ED418684007EDD41868400508D4D0
:1020C000186840074FF0000048BF70BD1868400511
:1020D000E4D56FF480601860042014E0154603E036
:1020E00053F8140F4007D6D418684005F1D4FFF711
:1020F0004DF8401B2368B042F2D958694007EFD42D
:10210000202000E0202000212022216384F83D20AF
:1021100084F83E10226C10432064012084F83C10A7
:1021200070BD00002DE9F041054600681E461446CA
:1021300001F47F0201338FB242D0DDF81880B2F58E
:10214000803F40F0878040693840C01BB0FA80F083
:102150004009A04240F0C8804EB924E040693840B0
:10216000C01BB0FA80F04009A04240F0BD80FFF7EC
:102170000DF8A0EB08012868B142EFD94169394058
:10218000C91BB1FA81F14909A142E7D19BE000BF27
:1021900040693840C01BB0FA80F04009A0424FF0BF
:1021A000000040F0A680FEF7F1FF28684169394041
:1021B000C91BB1FA81F14909A142E9D183E000BF0D
:1021C000B2F5803F24D100BF41693940C91BB1FA43
:1021D00081F14909A14240F0878041693940C91B1A
:1021E000B1FA81F14909A14240F07E80416939404C
:1021F000C91BB1FA81F14909A14275D14169394040
:10220000C91BB1FA81F14909A142DDD06CE000BFE0
:1022100081693940C91BB1FA81F14909A14263D1F1
:1022200081693940C91BB1FA81F14909A1425BD1E9
:1022300081693940C91BB1FA81F14909A14253D1E1
:1022400081693940C91BB1FA81F14909A142DFD046
:102250004AE000BF80693840C01BB0FA80F04009F6
:10226000A04241D146B923E080693840C01BB0FA92
:1022700080F04009A0423BD1FEF788FFA0EB0801A7
:102280002868B142F0D981693940C91BB1FA81F19E
:102290004909A142E8D116E080693840C01BB0FA74
:1022A00080F04009A0424FF0000018BFBDE8F08167
:1022B000FEF76CFF286881693940C91BB1FA81F1CA
:1022C0004909A142E8D100202021286385F83D106A
:1022D00085F83E00296C41F02001296485F83C0016
:1022E0000120BDE8F08100BF0020BDE8F08100BF03
:1022F0000020BDE8F0810000F0B581B00446006820
:102300001D4643698FB203EA0701B94202D100209A
:1023100001B0F0BD41691646013201F4806125D05B
:10232000002940D1CEB100BFFEF730FF411B20682D
:10233000B14203D941693940B9424BD14169394071
:10234000B942E4D041694905EED52CE041693940F4
:10235000B942DCD04169490525D4FEF717FF206852
:1023600041693940B942F1D0202024E0D9B941690E
:102370003940B942CBD04169490514D4416939404B
:10238000B942C4D0416949050DD441693940B942C7
:10239000BDD04169490506D441693940B942B6D03A
:1023A00041694905E3D5016841F4007101606FF4AA
:1023B00080614161042000212022216384F83D20B6
:1023C00084F83E10226C1043206484F83C100120F5
:1023D00001B0F0BD2020EEE770B50368044653F865
:1023E000140F000611D40E46481C29D086BB00BF2E
:1023F0001868400527D4FEF7C9FE236853F8140F68
:10240000000639D518680006F2D5002070BD00BF5F
:1024100018680006F9D41868400514D41868000636
:10242000F3D4186840050ED418680006EDD4186877
:10243000400508D4186800064FF0000048BF70BD82
:1024400018684005E4D56FF480601860042014E03B
:10245000154603E053F8140F0006D6D4186840055B
:10246000F1D4FEF793FE401B2368B042F2D95869BD
:102470000006EFD4202000E020200021202221634C
:1024800084F83D2084F83E10226C10432064012023
:1024900084F83C1070BD0000034643F2C950C0F6FA
:1024A00000004FF0807C22F0010203E90510A3F147
:1024B000400043F8201C704783B041F21800C4F27A
:1024C0000200016841F020010160016801F0200173
:1024D00002910299016841F004010160016801F074
:1024E000040101910199016841F00801016000684F
:1024F00000F008000090009803B0704780B542F6E5
:10250000B85045F20041C2F20000C4F2000148F2A6
:10251000A06200234FF4804CC0F2010280E80E005C
:10252000C0E9033CC0E90533C0E90733FEF734FED8
:10253000002808BF80BDBDE88040FEF7FFBC00005A
:10254000FEE70000FEE700002DE9F04F85B042F6FF
:10255000B85400254FF480760127C2F200040DF133
:10256000120B0DF113084FF0000900BF09F1B00084
:102570008DF8100004A8CDE900072046782100223C
:1025800001230296FEF7C4FE0DF11100CDE900070C
:1025900020467821002201238DF811500296FEF783
:1025A000B7FE10208DF8120020467821002201236A
:1025B000CDE900B70296FEF7ABFE4FF0000A00BF70
:1025C00020467821402201238DF81350CDE9008761
:1025D0000296FEF79DFE0AF101004FFA80FABAF169
:1025E000FF3FEDDCB9F1070F09F10109BED305B0DA
:1025F000BDE8F08F2DE9F04184B0C820FEF7A4FCBF
:1026000040F21406C2F20006307842F6B854C2F224
:1026100000048DF80F004FF4807801270DF10F05AD
:102620002046782100220123CDE90057CDF808800B
:10263000FEF76EFE707878218DF80F00204600229C
:102640000123CDE90057CDF80880FEF761FEB07890
:1026500078218DF80F00204600220123CDE9005794
:10266000CDF80880FEF754FEF07878218DF80F0041
:10267000204600220123CDE90057CDF80880FEF75F
:1026800047FE307978218DF80F0020460022012383
:10269000CDE90057CDF80880FEF73AFE7079782131
:1026A0008DF80F00204600220123CDE90057CDF818
:1026B0000880FEF72DFEB07978218DF80F002046B6
:1026C00000220123CDE90057CDF80880FEF720FE57
:1026D000F07978218DF80F00204600220123CDE902
:1026E0000057CDF80880FEF713FE307A78218DF878
:1026F0000F00204600220123CDE90057CDF80880C5
:10270000FEF706FE707A78218DF80F002046002231
:102710000123CDE90057CDF80880FEF7F9FDB07A26
:1027200078218DF80F00204600220123CDE90057C3
:10273000CDF80880FEF7ECFDF07A78218DF80F00D7
:10274000204600220123CDE90057CDF80880FEF78E
:10275000DFFD307B78218DF80F0020460022012319
:10276000CDE90057CDF80880FEF7D2FD707B7821C7
:102770008DF80F00204600220123CDE90057CDF847
:102780000880FEF7C5FDB07B78218DF80F0020464C
:1027900000220123CDE90057CDF80880FEF7B8FDEF
:1027A000F07B78218DF80F00204600220123CDE92F
:1027B0000057CDF80880FEF7ABFD307C78218DF80E
:1027C0000F00204600220123CDE90057CDF80880F4
:1027D000FEF79EFD707C78218DF80F0020460022C8
:1027E0000123CDE90057CDF80880FEF791FDB07CBC
:1027F00078218DF80F00204600220123CDE90057F3
:10280000CDF80880FEF784FDF07C78218DF80F006C
:10281000204600220123CDE90057CDF80880FEF7BD
:1028200077FD307D78218DF80F00204600220123AE
:10283000CDE90057CDF80880FEF76AFD707D78215C
:102840008DF80F00204600220123CDE90057CDF876
:102850000880FEF75DFDB07D78218DF80F002046E1
:1028600000220123CDE90057CDF80880FEF750FD86
:1028700004B0BDE8F08100002DE9F04F89B040B20E
:102880008B46DDF84890A2F12001002820EAE07292
:102890004FF0100748BF0BF1020BABF1500047EAB5
:1028A000121602F00F05102BCFB240F0BD8042F699
:1028B000B8548DF815004FF001080DF11500C2F263
:1028C00000044FF4807ACDE90008204678210022E8
:1028D0000123CDF808A0FEF71BFD0DF11600CDE990
:1028E0000008204678210022012303968DF8166007
:1028F000CDF808A0FEF70CFD0DF11700CDE900089A
:10290000204678210022012304958DF81750CDF838
:1029100008A0FEF7FDFC43F6B6003F01C0F600003C
:10292000C05DB9F1000F00F0118142F6B855C04307
:10293000C2F200058DF818000DF11809284678211B
:1029400040220123CDE90098CDF808A0FEF7E0FC75
:1029500043F6B60447F00100C0F60004205C78217D
:10296000C0438DF81800284640220123CDE9009885
:10297000CDF808A0FEF7CCFC47F00200205C7821DF
:10298000C0438DF81800284640220123CDE9009865
:10299000CDF808A0FEF7BCFC47F00300205C7821CE
:1029A000C0438DF81800284640220123CDE9009845
:1029B000CDF808A0FEF7ACFC47F00400205C7821BD
:1029C000C0438DF81800284640220123CDE9009825
:1029D000CDF808A0FEF79CFC47F00500205C7821AC
:1029E000C0438DF81800284640220123CDE9009805
:1029F000CDF808A0FEF78CFC47F00600205C78219B
:102A0000C0438DF81800284640220123CDE90098E4
:102A1000CDF808A0FEF77CFC47F00700205CC0431F
:102A20008DF8180007E100BF42F6B8548DF81F007A
:102A30004FF0010B0DF11F00C2F200044FF480783B
:102A4000CDE9000B2046782100220123CDF8088033
:102A5000FEF75EFC08A8CDE9000B20467821002295
:102A600001238DF82060CDF80880FEF751FC0DF1B0
:102A70002100CDE9000B20467821002201238DF8AA
:102A80002150CDF80880FEF743FC07EB470543F2E1
:102A90008E67C0F6000717F81500B9F1000F00F0B7
:102AA000938142F6B854C043C2F200048DF822006C
:102AB0000DF122092046782140220123CDE9009B17
:102AC000CDF80880FEF724FC07EB45056878AF7861
:102AD000C043EE7895F804A08DF8220020467821B6
:102AE00040220123CDE9009BCDF80880FEF710FCC1
:102AF000F8438DF822002046782140220123CDE9B9
:102B0000009BCDF80880FEF703FCF0438DF822000F
:102B10002046782140220123CDE9009BCDF8088092
:102B2000FEF7F6FB6FEA0A008DF8220020467821B6
:102B300040220123CDE9009BCDF80880FEF7E8FB99
:102B40006879C0438DF822008AE100BF42F6B8558B
:102B5000C2F200058DF819000DF1190928467821F7
:102B600040220123CDE90098CDF808A0FEF7D0FB64
:102B700043F6B60447F00100C0F60004205C78215B
:102B80008DF81900284640220123CDE90098CDF8A0
:102B900008A0FEF7BDFB47F00200205C78218DF80D
:102BA0001900284640220123CDE90098CDF808A05D
:102BB000FEF7AEFB47F00300205C78218DF819008A
:102BC000284640220123CDE90098CDF808A0FEF761
:102BD0009FFB47F00400205C78218DF819002846FF
:102BE00040220123CDE90098CDF808A0FEF790FB24
:102BF00047F00500205C78218DF819002846402216
:102C00000123CDE90098CDF808A0FEF781FB47F03D
:102C10000600205C78218DF8190028464022012307
:102C2000CDE90098CDF808A0FEF772FB47F0070049
:102C3000205C8DF819002846782140220123CDE937
:102C40000098CDF808A0FEF763FBABF14F0042F609
:102C5000B8548DF81A004FF001090DF11A00C2F2B4
:102C600000044FF48078CDE9000920467821002245
:102C70000123CDF80880FEF74BFB039878218DF8EF
:102C80001B000DF11B00CDE90009204600220123A5
:102C9000CDF80880FEF73CFB049878218DF81C00E5
:102CA00007A8CDE90009204600220123CDF80880BD
:102CB000FEF72EFB43F6B60147F00800C0F6000110
:102CC000085C1299002900F0CF8042F6B854C04346
:102CD000C2F200048DF81D000DF11D05204678217B
:102CE00040220123CDE90059CDF80880FEF710FB02
:102CF00043F6B60647F00900C0F60006305C7821BE
:102D0000C0438DF81D00204640220123CDE9005923
:102D1000CDF80880FEF7FCFA47F00A00305C782115
:102D2000C0438DF81D00204640220123CDE9005903
:102D3000CDF80880FEF7ECFA47F00B00305C782104
:102D4000C0438DF81D00204640220123CDE90059E3
:102D5000CDF80880FEF7DCFA47F00C00305C7821F3
:102D6000C0438DF81D00204640220123CDE90059C3
:102D7000CDF80880FEF7CCFA47F00D00305C7821E2
:102D8000C0438DF81D00204640220123CDE90059A3
:102D9000CDF80880FEF7BCFA47F00E00305C7821D1
:102DA000C0438DF81D00204640220123CDE9005983
:102DB000CDF80880FEF7ACFA47F00F00305CC04356
:102DC0008DF81D00C5E000BF42F6B854C2F2000401
:102DD0008DF823000DF1230920467821402201239C
:102DE000CDE9009BCDF80880FEF792FA07EB450588
:102DF0006878AE78EF7895F804A08DF82300204627
:102E0000782140220123CDE9009BCDF80880FEF710
:102E10007FFA20467821402201238DF82360CDE9F6
:102E2000009BCDF80880FEF773FA204678214022F7
:102E300001238DF82370CDE9009BCDF80880FEF7C3
:102E400067FA20467821402201238DF823A0CDE99E
:102E5000009BCDF80880FEF75BFA68798DF82300B7
:102E6000CDE9009B77E000BF42F6B854C2F20004FF
:102E70008DF81E000DF11E05204678214022012309
:102E8000CDE90059CDF80880FEF742FA43F6B606C0
:102E900047F00900C0F60006305C78218DF81E006E
:102EA000204640220123CDE90059CDF80880FEF7E5
:102EB0002FFA47F00A00305C78218DF81E0020467A
:102EC00040220123CDE90059CDF80880FEF720FA11
:102ED00047F00B00305C78218DF81E002046402220
:102EE0000123CDE90059CDF80880FEF711FA47F02B
:102EF0000C00305C78218DF81E0020464022012312
:102F0000CDE90059CDF80880FEF702FA47F00D0030
:102F1000305C78218DF81E00204640220123CDE947
:102F20000059CDF80880FEF7F3F947F00E00305C49
:102F300078218DF81E00204640220123CDE900595A
:102F4000CDF80880FEF7E4F947F00F00305C8DF80B
:102F50001E00CDE900592046782140220123CDF8FA
:102F60000880FEF7D5F909B0BDE8F08F2DE9F04FE4
:102F700087B0002B0691059000F0838010981C46C6
:102F800040080490981E019058421746591E4FF071
:102F900000085FFA80F942F2107A00264FF0000B29
:102FA0000391029215E000BF0126DDE90421DDE96D
:102FB000103502FB081140F03002C8B20699D2B2B7
:102FC0000095FFF759FC08F10108A0450BF1010B32
:102FD00057D06FEA0B00C0B2484501D1012029E06B
:102FE00001996FEA0800A1EB0801C9B2032900EBBF
:102FF000040101D2012009E001F0FC0200230120BC
:103000000433DFB2974200FB0AF0F9D1029F11F0BE
:1030100003010FD0012903D100EB8000400009E03B
:103020004FF47A72424302294FF0640108BF00FB5B
:1030300001F21046B7FBF0F04CF6CD41CCF6CC4196
:10304000A0FB0112D10801EB8101002EA0EB410091
:10305000ABD103994145A8DD0028A5D1DDE90410D5
:10306000DDE9103601FB08000699C0B22022009667
:10307000FFF702FC002608F10108A0450BF1010B47
:10308000A7D107B0BDE8F08F0000000000000000ED
:10309000EFF30980BFF36F8F0D4B1A6820E9F00F33
:1030A00010602DE908404FF0BF0080F3118800F058
:1030B0008DFA4FF0000080F31188BDE808401968D0
:1030C0000868B0E8F00F80F30988BFF36F8F70478E
:1030D000B401002070470000000000000000000064
:1030E000074B19680868B0E8F00F80F30988BFF350
:1030F0006F8F4FF0000080F311884EF00D0E704777
:10310000B40100207047000000F0D2B94FF0BF00BA
:1031100080F31188BFF36F8FBFF34F8F00F06ABA4F
:10312000EFF3108072B640F23000C2F20000016886
:10313000013101600168B1F57A7F18D00168B1F5FD
:10314000FA6F14D0016840F6B83291420FD001688E
:10315000B1F57A6F0BD0016841F28832914206D006
:10316000016841F27072914208D3012101604EF66C
:103170000450CEF200004FF08051016062B67047FB
:103180007047000042F60C60C2F20000FEF74CBE31
:103190002DE9F0418046042014460F4600F086F8E1
:1031A0000546042000F082F80646B80000F07EF8DC
:1031B00028603844013820F0070021464246FFF7D6
:1031C0006BF93060302000F071F82060C0F81C808E
:1031D000306821680860286821684860284600F047
:1031E00009F8304600F006F82068BDE8F0810000DC
:1031F000FEE7000010B500283CD0014651F8082D2C
:10320000002A43D140F2340CC2F2000C50F804EC16
:10321000DCF80C2063467244CCF80C201C688C420D
:103220000AD223688B420BD21C688C4204D22368DA
:1032300022468B42F2D304E01A46234601E000BF47
:1032400022460B6011600C6801EB0E03A34209D10A
:10325000DCF80840A34203D018CBA64440F804ECA5
:103260001C460B60506813188B4204BF7044C2E9BF
:10327000004010BD43F6A86043F6D761C0F60000D9
:10328000C0F6000140F215120AE000BF43F6A86044
:1032900043F6D761C0F60000C0F6000140F21D12EF
:1032A000FCF7A2FF4FF0FF30FDF744F8B0B500285F
:1032B00000F0968010F0070181F0070118BF084464
:1032C00000F1080E1EF1010000F09A8040F2340077
:1032D000C2F20000836823BB40F2B812C2F20002BF
:1032E000510707D0D31DC16823F00703D21A114438
:1032F0001A46C160002153070260416008D042F6BF
:103300000741114421F00703991AC16003E000BF8F
:10331000C16802F5305383600020C3E90000C2E9B0
:10332000003140F2340CC2F2000C6246146860684E
:1033300070450DD22268506870453FD214686068AD
:10334000704505D22268214650687045EED301E0F1
:10335000114622469A4234D01468A0EB0E05112D76
:103360000C6008D302EB0E00456042F80E40086086
:103370007046C2F804E0DCF80C109A42A1EB0000A1
:10338000CCF80C004FF0000010609CBF02F1080068
:10339000B0BD40F2B81122A0C2F20001FCF724FF38
:1033A00043F6CB6126A0C0F600014FF48172FCF712
:1033B0001BFF4FF0FF30FCF7BDFF00BF21469A42D4
:1033C000CAD143F6A86043F6CB61C0F60000C0F650
:1033D0000001D622FCF708FF4FF0FF30FCF7AAFFF0
:1033E00043F6A86043F6CB61C0F60000C0F60001CA
:1033F000A922FCF7F9FE4FF0FF30FCF79BFF00BF5E
:1034000043F6A86043F6CB61C0F60000C0F60001A9
:10341000B922FCF7E9FE4FF0FF30FCF78BFF00BF4D
:10342000616C68656170203A202564202C75736595
:103430003A2025642C207461696C3A2025640A00C6
:103440006675636B203A202573206174206C696E69
:10345000653A2025640A000082B00024102500BFD0
:10346000302004210122012300950194FFF77EFD05
:10347000302004210922012300950194FFF776FDF5
:10348000EEE7000082B00024102500BF30200221AA
:103490000522012300950194FFF768FD30200221E9
:1034A0000622012300950194FFF760FDEEE700007E
:1034B00070B582B00420FFF7F9FE04460420FFF740
:1034C000F5FE05464FF48060FFF7F0FE43F2195613
:1034D0002060FF30C0F6000620F0070001A9324648
:1034E000FEF7DAFF28603020FFF7E0FE2968019040
:1034F00001602168019AC66120465160FFF77AFE9B
:103500002846FFF777FE019842F65461C2F20001A7
:10351000086002B070BD00007047000090B0FDF779
:10352000E3FF00240120CDE90B44CDE909440690D6
:103530000A904FF4E0104FF4803102250F9006A856
:10354000CDE90714CDE90D51FEF7D6F920B1EFF31F
:10355000108072B6FEE700BF0F20CDE901054FF4E1
:103560008060CDE9040401A802210394FEF79AF8D3
:1035700020B1EFF3108072B6FEE700BFFEF79CFFAC
:10358000FEF7BCFFFFF736F8FEF7DEFFFFF7BCFDE6
:1035900040F2A41443F25940C2F20004C0F6000005
:1035A0004FF480712246FFF7F3FDA06043F285409F
:1035B000221DC0F600004FF48071FFF7E9FDE060C6
:1035C000FFF7A4FDFEE70000FEE7000040F2B410A4
:1035D00040F2A412C2F20000C2F2000240F2A813AC
:1035E00001681268C2F200031B68914218BF1346BB
:1035F000036070474EF62050CEF20000016841F49F
:103600007F01016001680160002140F8041C4EF256
:103610001000CEF200000160816041F63F11C0F25F
:10362000010141600721016006480068006880F3DD
:10363000088862B661B6BFF34F8FBFF36F8F00DFAC
:1036400000BF000008ED00E0FFF7C0FFFEE78A685A
:10365000002A02DC0022FDF705B8521E8A604A6883
:10366000C0B2531C4B60107070473A7474003A74C7
:1036700074003A74740000000000000000000102B1
:10368000030406070809000000000102030400000B
:10369000000000000000002F0000000007000700ED
:1036A00000147F147F1400242A7F2A120062640809
:1036B0001323003649552250000005030000000086
:1036C0001C224100000041221C000014083E081486
:1036D0000008083E0808000000A060000008080874
:1036E0000808000060600000002010080402003E8E
:1036F0005149453E0000427F400000426151494629
:10370000002141454B31001814127F100027454518
:103710004539003C4A49493000017109050300362A
:103720004949493600064949291E0000363600003D
:103730000000563600000008142241000014141442
:10374000141400004122140800020151090600323D
:103750004959513E007C1211127C007F494949367B
:10376000003E41414122007F4141221C007F4949E6
:103770004941007F09090901003E4149497A007F1A
:103780000808087F0000417F4100002040413F01C0
:10379000007F08142241007F40404040007F020C1F
:1037A000027F007F0408107F003E4141413E007FC0
:1037B00009090906003E4151215E007F0919294689
:1037C0000046494949310001017F0101003F404065
:1037D000403F001F2040201F003F4038403F006313
:1037E0001408146300070870080700615149454335
:1037F00000007F41410000552A552A5500004141F3
:103800007F000004020102040040404040400000EC
:1038100001020400002054545478007F4844443886
:1038200000384444442000384444487F003854540D
:10383000541800087E0901020018A4A4A47C007F8B
:10384000080404780000447D4000004080847D002E
:10385000007F102844000000417F4000007C0418D5
:103860000478007C0804047800384444443800FCA0
:10387000242424180018242418FC007C08040408BC
:1038800000485454542000043F444020003C404031
:10389000207C001C2040201C003C4030403C004468
:1038A00028102844001CA0A0A07C004464544C4470
:1038B0001414141414140000000000000000000090
:1038C000000000000000000000F800000000000000
:1038D00000333000000000100C06100C0600000041
:1038E00000000000000040C07840C0784000043F65
:1038F00004043F040400007088FC08300000001835
:1039000020FF211E0000F008F000E0180000002158
:103910001C031E211E0000F00888700000001E21FC
:1039200023241927211010160E00000000000000AB
:10393000000000000000000000E018040200000089
:1039400000071820400000020418E00000000040BA
:10395000201807000000404080F080404000020234
:10396000010F01020200000000F000000000010150
:10397000011F01010100000000000000000080B0F4
:1039800070000000000000000000000000000001C6
:1039900001010101010100000000000000000030F1
:1039A000300000000000000000008060180400608B
:1039B00018060100000000E010080810E000000FE9
:1039C000102020100F00001010F800000000002050
:1039D000203F202000000070080808887000003098
:1039E0002824222130000030088888483000001840
:1039F000202020110E000000C02010F80000000759
:103A00000424243F240000F80888880808000019CE
:103A1000212020110E0000E0108888180000000FFF
:103A2000112020110E0000380808C83808000000D6
:103A3000003F000000000070880808887000001C2B
:103A4000222121221C0000E010080810E0000000E4
:103A5000312222110F00000000C0C0000000000051
:103A60000030300000000000008000000000000076
:103A7000806000000000000080402010080000016D
:103A80000204081020004040404040404000040430
:103A900004040404040000081020408000000020FA
:103AA000100804020100007048080808F000000037
:103AB000003036010000C030C828E810E0000718C8
:103AC000272423140B000000C038E0000000203C35
:103AD00023020227382008F8888888700000203FD9
:103AE000202020110E00C0300808080838000718F0
:103AF00020202010080008F808080810E000203FE7
:103B0000202020100F0008F88888E8081000203FC7
:103B100020202320180008F88888E8081000203F9B
:103B2000200003000000C030080808380000071813
:103B30002020221E020008F808000008F808203F94
:103B4000210101213F20000808F80808000000209A
:103B5000203F2020000000000808F8080800C0806E
:103B600080807F00000008F888C028180800203FE7
:103B700020012638200008F8080000000000203F3F
:103B800020202020300008F8F800F8F80800203F36
:103B9000003F003F200008F830C00008F808203F30
:103BA000200007183F00E01008080810E0000F1080
:103BB000202020100F0008F808080808F000203F17
:103BC000210101010000E01008080810E0000F18B2
:103BD000242438504F0008F8888888887000203FD7
:103BE0002000030C302000708808080838000038D6
:103BF000202121221C00180808F8080818000000DD
:103C0000203F2000000008F808000008F808001F06
:103C1000202020201F000878880000C838080000F5
:103C200007380E010000F80800F80008F800033C0F
:103C30000700073C030008186880806818082030D7
:103C40002C03032C30200838C800C83808000000B6
:103C5000203F2000000010080808C838080020385D
:103C6000262120201800000000FE020202000000B1
:103C7000007F40404000000C30C000000000000009
:103C800000010638C00000020202FE0000000040F1
:103C900040407F0000000000040202020400000017
:103CA0000000000000000000000000000000808014
:103CB00080808080808000020204000000000000FC
:103CC00000000000000000008080808000000019DB
:103CD000242222223F2008F8008080000000003FBC
:103CE000112020110E000000008080800000000ED6
:103CF000112020201100000000808088F800000EB4
:103D0000112020103F200000808080800000001FD4
:103D1000222222221300008080F088888818002048
:103D2000203F202000000000808080808000006B09
:103D300094949493600008F8008080800000203FF5
:103D4000210000203F200080989800000000002003
:103D5000203F20200000000000809898000000C054
:103D60008080807F000008F8000080808000203F75
:103D700024022D302000000808F800000000002078
:103D8000203F202000008080808080808000203FB5
:103D900020003F20003F8080008080800000203F86
:103DA000210000203F200000808080800000001F54
:103DB000202020201F00808000808000000080FFE5
:103DC000A12020110E000000008080808000000EE5
:103DD000112020A0FF808080800080808000202033
:103DE0003F2120000100000080808080800000339F
:103DF000242424241900008080E08080000000003A
:103E0000001F202000008080000000808000001F34
:103E1000202020103F2080808000008080800001D2
:103E20000E300806010080800080008080800F3006
:103E30000C030C300F000080800080808000002088
:103E4000312E0E31200080808000008080808081B3
:103E50008E70180601000080808080808000002124
:103E6000302C2221300000000000807C0202000083
:103E70000000003F40400002027C80000000004043
:103E8000403F0000000000000000FF0000000000B4
:103E90000000FF00000001020203040506070809F4
:103EA0000A0B0C0D0E0F10104572726F7220696EA6
:103EB0002066756E6374696F6E3A20257320617495
:103EC000206C696E653A2025640A00686561705F40
:103ED0006D616C6C6F6300686561705F66726565CB
:103EE00000000000083F000800000020480000001B
:103EF00028010008503F000848000020183A000040
:103F00004401000800000000000000000000000064
:103F1000000000000100000010000000AED580A8E5
:103F20003FD30040A1C8DA1281CFD9F1DB40A4A66B
:103F30008D14AF0000127A000100000000000000A4
:103F40000000000000000000002C00000000000045
:04000005080000ED02
:00000001FF
